{
  "_format": "hh-sol-artifact-1",
  "contractName": "NFT",
  "sourceName": "src/backend/contracts/NFT.sol",
  "abi": [
    {
      "inputs": [],
      "stateMutability": "nonpayable",
      "type": "constructor"
    },
    {
      "anonymous": false,
      "inputs": [
        {
          "indexed": true,
          "internalType": "address",
          "name": "owner",
          "type": "address"
        },
        {
          "indexed": true,
          "internalType": "address",
          "name": "approved",
          "type": "address"
        },
        {
          "indexed": true,
          "internalType": "uint256",
          "name": "tokenId",
          "type": "uint256"
        }
      ],
      "name": "Approval",
      "type": "event"
    },
    {
      "anonymous": false,
      "inputs": [
        {
          "indexed": true,
          "internalType": "address",
          "name": "owner",
          "type": "address"
        },
        {
          "indexed": true,
          "internalType": "address",
          "name": "operator",
          "type": "address"
        },
        {
          "indexed": false,
          "internalType": "bool",
          "name": "approved",
          "type": "bool"
        }
      ],
      "name": "ApprovalForAll",
      "type": "event"
    },
    {
      "anonymous": false,
      "inputs": [
        {
          "indexed": false,
          "internalType": "uint256",
          "name": "itemId",
          "type": "uint256"
        },
        {
          "indexed": true,
          "internalType": "address",
          "name": "nft",
          "type": "address"
        },
        {
          "indexed": false,
          "internalType": "uint256",
          "name": "tokenId",
          "type": "uint256"
        },
        {
          "indexed": false,
          "internalType": "uint256",
          "name": "price",
          "type": "uint256"
        },
        {
          "indexed": false,
          "internalType": "uint256",
          "name": "date",
          "type": "uint256"
        },
        {
          "indexed": false,
          "internalType": "string",
          "name": "sno",
          "type": "string"
        },
        {
          "indexed": false,
          "internalType": "uint256",
          "name": "warranty",
          "type": "uint256"
        },
        {
          "indexed": true,
          "internalType": "address",
          "name": "seller",
          "type": "address"
        },
        {
          "indexed": true,
          "internalType": "address",
          "name": "buyer",
          "type": "address"
        }
      ],
      "name": "Bought",
      "type": "event"
    },
    {
      "anonymous": false,
      "inputs": [
        {
          "indexed": true,
          "internalType": "address",
          "name": "from",
          "type": "address"
        },
        {
          "indexed": true,
          "internalType": "address",
          "name": "to",
          "type": "address"
        },
        {
          "indexed": true,
          "internalType": "uint256",
          "name": "tokenId",
          "type": "uint256"
        }
      ],
      "name": "Transfer",
      "type": "event"
    },
    {
      "anonymous": false,
      "inputs": [
        {
          "indexed": true,
          "internalType": "address",
          "name": "_buyer",
          "type": "address"
        }
      ],
      "name": "trans",
      "type": "event"
    },
    {
      "inputs": [
        {
          "internalType": "address",
          "name": "to",
          "type": "address"
        },
        {
          "internalType": "uint256",
          "name": "tokenId",
          "type": "uint256"
        }
      ],
      "name": "approve",
      "outputs": [],
      "stateMutability": "nonpayable",
      "type": "function"
    },
    {
      "inputs": [
        {
          "internalType": "address",
          "name": "owner",
          "type": "address"
        }
      ],
      "name": "balanceOf",
      "outputs": [
        {
          "internalType": "uint256",
          "name": "",
          "type": "uint256"
        }
      ],
      "stateMutability": "view",
      "type": "function"
    },
    {
      "inputs": [
        {
          "internalType": "uint256",
          "name": "_tokenId",
          "type": "uint256"
        },
        {
          "internalType": "uint256",
          "name": "_itemId",
          "type": "uint256"
        },
        {
          "internalType": "address",
          "name": "_buyer",
          "type": "address"
        }
      ],
      "name": "buy",
      "outputs": [],
      "stateMutability": "nonpayable",
      "type": "function"
    },
    {
      "inputs": [
        {
          "internalType": "uint256",
          "name": "_tokenId",
          "type": "uint256"
        }
      ],
      "name": "destroyItem",
      "outputs": [],
      "stateMutability": "nonpayable",
      "type": "function"
    },
    {
      "inputs": [
        {
          "internalType": "uint256",
          "name": "tokenId",
          "type": "uint256"
        }
      ],
      "name": "getApproved",
      "outputs": [
        {
          "internalType": "address",
          "name": "",
          "type": "address"
        }
      ],
      "stateMutability": "view",
      "type": "function"
    },
    {
      "inputs": [
        {
          "internalType": "address",
          "name": "owner",
          "type": "address"
        },
        {
          "internalType": "address",
          "name": "operator",
          "type": "address"
        }
      ],
      "name": "isApprovedForAll",
      "outputs": [
        {
          "internalType": "bool",
          "name": "",
          "type": "bool"
        }
      ],
      "stateMutability": "view",
      "type": "function"
    },
    {
      "inputs": [
        {
          "internalType": "string",
          "name": "_tokenURI",
          "type": "string"
        }
      ],
      "name": "mint",
      "outputs": [
        {
          "internalType": "uint256",
          "name": "",
          "type": "uint256"
        }
      ],
      "stateMutability": "nonpayable",
      "type": "function"
    },
    {
      "inputs": [],
      "name": "name",
      "outputs": [
        {
          "internalType": "string",
          "name": "",
          "type": "string"
        }
      ],
      "stateMutability": "view",
      "type": "function"
    },
    {
      "inputs": [
        {
          "internalType": "uint256",
          "name": "tokenId",
          "type": "uint256"
        }
      ],
      "name": "ownerOf",
      "outputs": [
        {
          "internalType": "address",
          "name": "",
          "type": "address"
        }
      ],
      "stateMutability": "view",
      "type": "function"
    },
    {
      "inputs": [
        {
          "internalType": "address",
          "name": "from",
          "type": "address"
        },
        {
          "internalType": "address",
          "name": "to",
          "type": "address"
        },
        {
          "internalType": "uint256",
          "name": "tokenId",
          "type": "uint256"
        }
      ],
      "name": "safeTransferFrom",
      "outputs": [],
      "stateMutability": "nonpayable",
      "type": "function"
    },
    {
      "inputs": [
        {
          "internalType": "address",
          "name": "from",
          "type": "address"
        },
        {
          "internalType": "address",
          "name": "to",
          "type": "address"
        },
        {
          "internalType": "uint256",
          "name": "tokenId",
          "type": "uint256"
        },
        {
          "internalType": "bytes",
          "name": "_data",
          "type": "bytes"
        }
      ],
      "name": "safeTransferFrom",
      "outputs": [],
      "stateMutability": "nonpayable",
      "type": "function"
    },
    {
      "inputs": [
        {
          "internalType": "address",
          "name": "operator",
          "type": "address"
        },
        {
          "internalType": "bool",
          "name": "approved",
          "type": "bool"
        }
      ],
      "name": "setApprovalForAll",
      "outputs": [],
      "stateMutability": "nonpayable",
      "type": "function"
    },
    {
      "inputs": [
        {
          "internalType": "bytes4",
          "name": "interfaceId",
          "type": "bytes4"
        }
      ],
      "name": "supportsInterface",
      "outputs": [
        {
          "internalType": "bool",
          "name": "",
          "type": "bool"
        }
      ],
      "stateMutability": "view",
      "type": "function"
    },
    {
      "inputs": [],
      "name": "symbol",
      "outputs": [
        {
          "internalType": "string",
          "name": "",
          "type": "string"
        }
      ],
      "stateMutability": "view",
      "type": "function"
    },
    {
      "inputs": [],
      "name": "tokenCount",
      "outputs": [
        {
          "internalType": "uint256",
          "name": "",
          "type": "uint256"
        }
      ],
      "stateMutability": "view",
      "type": "function"
    },
    {
      "inputs": [
        {
          "internalType": "uint256",
          "name": "tokenId",
          "type": "uint256"
        }
      ],
      "name": "tokenURI",
      "outputs": [
        {
          "internalType": "string",
          "name": "",
          "type": "string"
        }
      ],
      "stateMutability": "view",
      "type": "function"
    },
    {
      "inputs": [
        {
          "internalType": "address",
          "name": "from",
          "type": "address"
        },
        {
          "internalType": "address",
          "name": "to",
          "type": "address"
        },
        {
          "internalType": "uint256",
          "name": "tokenId",
          "type": "uint256"
        }
      ],
      "name": "transferFrom",
      "outputs": [],
      "stateMutability": "nonpayable",
      "type": "function"
    }
  ],
  "bytecode": "0x60806040523480156200001157600080fd5b506040518060400160405280600881526020017f44417070204e46540000000000000000000000000000000000000000000000008152506040518060400160405280600481526020017f4441505000000000000000000000000000000000000000000000000000000000815250816000908051906020019062000096929190620000b8565b508060019080519060200190620000af929190620000b8565b505050620001cd565b828054620000c69062000168565b90600052602060002090601f016020900481019282620000ea576000855562000136565b82601f106200010557805160ff191683800117855562000136565b8280016001018555821562000136579182015b828111156200013557825182559160200191906001019062000118565b5b50905062000145919062000149565b5090565b5b80821115620001645760008160009055506001016200014a565b5090565b600060028204905060018216806200018157607f821691505b602082108114156200019857620001976200019e565b5b50919050565b7f4e487b7100000000000000000000000000000000000000000000000000000000600052602260045260246000fd5b6130e080620001dd6000396000f3fe608060405234801561001057600080fd5b506004361061010b5760003560e01c806370a08231116100a2578063b88d4fde11610071578063b88d4fde146102b6578063c87b56dd146102d2578063d85d3d2714610302578063e985e9c514610332578063f7c8af48146103625761010b565b806370a082311461022e57806395d89b411461025e5780639f181b5e1461027c578063a22cb4651461029a5761010b565b806323b872dd116100de57806323b872dd146101aa57806342842e0e146101c657806359a87bc1146101e25780636352211e146101fe5761010b565b806301ffc9a71461011057806306fdde0314610140578063081812fc1461015e578063095ea7b31461018e575b600080fd5b61012a60048036038101906101259190611f9a565b61037e565b60405161013791906124bd565b60405180910390f35b610148610460565b60405161015591906124d8565b60405180910390f35b6101786004803603810190610173919061202d565b6104f2565b604051610185919061242d565b60405180910390f35b6101a860048036038101906101a39190611f5e565b610577565b005b6101c460048036038101906101bf9190611e58565b61068f565b005b6101e060048036038101906101db9190611e58565b6106ef565b005b6101fc60048036038101906101f79190612056565b61070f565b005b6102186004803603810190610213919061202d565b61085d565b604051610225919061242d565b60405180910390f35b61024860048036038101906102439190611df3565b61090f565b604051610255919061271a565b60405180910390f35b6102666109c7565b60405161027391906124d8565b60405180910390f35b610284610a59565b604051610291919061271a565b60405180910390f35b6102b460048036038101906102af9190611f22565b610a5f565b005b6102d060048036038101906102cb9190611ea7565b610a75565b005b6102ec60048036038101906102e7919061202d565b610ad7565b6040516102f991906124d8565b60405180910390f35b61031c60048036038101906103179190611fec565b610c29565b604051610329919061271a565b60405180910390f35b61034c60048036038101906103479190611e1c565b610c65565b60405161035991906124bd565b60405180910390f35b61037c6004803603810190610377919061202d565b610cf9565b005b60007f80ac58cd000000000000000000000000000000000000000000000000000000007bffffffffffffffffffffffffffffffffffffffffffffffffffffffff1916827bffffffffffffffffffffffffffffffffffffffffffffffffffffffff1916148061044957507f5b5e139f000000000000000000000000000000000000000000000000000000007bffffffffffffffffffffffffffffffffffffffffffffffffffffffff1916827bffffffffffffffffffffffffffffffffffffffffffffffffffffffff1916145b80610459575061045882610d97565b5b9050919050565b60606000805461046f906129fa565b80601f016020809104026020016040519081016040528092919081815260200182805461049b906129fa565b80156104e85780601f106104bd576101008083540402835291602001916104e8565b820191906000526020600020905b8154815290600101906020018083116104cb57829003601f168201915b5050505050905090565b60006104fd82610e01565b61053c576040517f08c379a00000000000000000000000000000000000000000000000000000000081526004016105339061267a565b60405180910390fd5b6004600083815260200190815260200160002060009054906101000a900473ffffffffffffffffffffffffffffffffffffffff169050919050565b60006105828261085d565b90508073ffffffffffffffffffffffffffffffffffffffff168373ffffffffffffffffffffffffffffffffffffffff1614156105f3576040517f08c379a00000000000000000000000000000000000000000000000000000000081526004016105ea906126ba565b60405180910390fd5b8073ffffffffffffffffffffffffffffffffffffffff16610612610e6d565b73ffffffffffffffffffffffffffffffffffffffff16148061064157506106408161063b610e6d565b610c65565b5b610680576040517f08c379a0000000000000000000000000000000000000000000000000000000008152600401610677906125ba565b60405180910390fd5b61068a8383610e75565b505050565b6106a061069a610e6d565b82610f2e565b6106df576040517f08c379a00000000000000000000000000000000000000000000000000000000081526004016106d6906126fa565b60405180910390fd5b6106ea83838361100c565b505050565b61070a83838360405180602001604052806000815250610a75565b505050565b61072161071b8461085d565b33611273565b3373ffffffffffffffffffffffffffffffffffffffff166107418461085d565b73ffffffffffffffffffffffffffffffffffffffff1614610797576040517f08c379a000000000000000000000000000000000000000000000000000000000815260040161078e906126da565b60405180910390fd5b60006107a28461085d565b90506107b56107b08561085d565b61130f565b6107c081838661100c565b6107d16107cc8561085d565b61130f565b8173ffffffffffffffffffffffffffffffffffffffff168173ffffffffffffffffffffffffffffffffffffffff163073ffffffffffffffffffffffffffffffffffffffff167f5a0d048d12a0c84e031861a1ae18c27c2ab3909b97ede449be5833d8d4c895fa8688600160008060405161084f959493929190612735565b60405180910390a450505050565b6000806002600084815260200190815260200160002060009054906101000a900473ffffffffffffffffffffffffffffffffffffffff169050600073ffffffffffffffffffffffffffffffffffffffff168173ffffffffffffffffffffffffffffffffffffffff161415610906576040517f08c379a00000000000000000000000000000000000000000000000000000000081526004016108fd906125fa565b60405180910390fd5b80915050919050565b60008073ffffffffffffffffffffffffffffffffffffffff168273ffffffffffffffffffffffffffffffffffffffff161415610980576040517f08c379a0000000000000000000000000000000000000000000000000000000008152600401610977906125da565b60405180910390fd5b600360008373ffffffffffffffffffffffffffffffffffffffff1673ffffffffffffffffffffffffffffffffffffffff168152602001908152602001600020549050919050565b6060600180546109d6906129fa565b80601f0160208091040260200160405190810160405280929190818152602001828054610a02906129fa565b8015610a4f5780601f10610a2457610100808354040283529160200191610a4f565b820191906000526020600020905b815481529060010190602001808311610a3257829003601f168201915b5050505050905090565b60075481565b610a71610a6a610e6d565b83836113a8565b5050565b610a86610a80610e6d565b83610f2e565b610ac5576040517f08c379a0000000000000000000000000000000000000000000000000000000008152600401610abc906126fa565b60405180910390fd5b610ad184848484611515565b50505050565b6060610ae282610e01565b610b21576040517f08c379a0000000000000000000000000000000000000000000000000000000008152600401610b189061265a565b60405180910390fd5b6000600660008481526020019081526020016000208054610b41906129fa565b80601f0160208091040260200160405190810160405280929190818152602001828054610b6d906129fa565b8015610bba5780601f10610b8f57610100808354040283529160200191610bba565b820191906000526020600020905b815481529060010190602001808311610b9d57829003601f168201915b505050505090506000610bcb611571565b9050600081511415610be1578192505050610c24565b600082511115610c16578082604051602001610bfe929190612409565b60405160208183030381529060405292505050610c24565b610c1f84611588565b925050505b919050565b600060076000815480929190610c3e90612a5d565b9190505550610c4f3360075461162f565b610c5b60075483611809565b6007549050919050565b6000600560008473ffffffffffffffffffffffffffffffffffffffff1673ffffffffffffffffffffffffffffffffffffffff16815260200190815260200160002060008373ffffffffffffffffffffffffffffffffffffffff1673ffffffffffffffffffffffffffffffffffffffff16815260200190815260200160002060009054906101000a900460ff16905092915050565b610d0b610d058261085d565b33611273565b3373ffffffffffffffffffffffffffffffffffffffff16610d2b8261085d565b73ffffffffffffffffffffffffffffffffffffffff1614610d81576040517f08c379a0000000000000000000000000000000000000000000000000000000008152600401610d78906126da565b60405180910390fd5b610d94610d8d8261085d565b308361100c565b50565b60007f01ffc9a7000000000000000000000000000000000000000000000000000000007bffffffffffffffffffffffffffffffffffffffffffffffffffffffff1916827bffffffffffffffffffffffffffffffffffffffffffffffffffffffff1916149050919050565b60008073ffffffffffffffffffffffffffffffffffffffff166002600084815260200190815260200160002060009054906101000a900473ffffffffffffffffffffffffffffffffffffffff1673ffffffffffffffffffffffffffffffffffffffff1614159050919050565b600033905090565b816004600083815260200190815260200160002060006101000a81548173ffffffffffffffffffffffffffffffffffffffff021916908373ffffffffffffffffffffffffffffffffffffffff160217905550808273ffffffffffffffffffffffffffffffffffffffff16610ee88361085d565b73ffffffffffffffffffffffffffffffffffffffff167f8c5be1e5ebec7d5bd14f71427d1e84f3dd0314c0f7b2291e5b200ac8c7c3b92560405160405180910390a45050565b6000610f3982610e01565b610f78576040517f08c379a0000000000000000000000000000000000000000000000000000000008152600401610f6f9061259a565b60405180910390fd5b6000610f838361085d565b90508073ffffffffffffffffffffffffffffffffffffffff168473ffffffffffffffffffffffffffffffffffffffff161480610ff257508373ffffffffffffffffffffffffffffffffffffffff16610fda846104f2565b73ffffffffffffffffffffffffffffffffffffffff16145b8061100357506110028185610c65565b5b91505092915050565b8273ffffffffffffffffffffffffffffffffffffffff1661102c8261085d565b73ffffffffffffffffffffffffffffffffffffffff1614611082576040517f08c379a00000000000000000000000000000000000000000000000000000000081526004016110799061251a565b60405180910390fd5b600073ffffffffffffffffffffffffffffffffffffffff168273ffffffffffffffffffffffffffffffffffffffff1614156110f2576040517f08c379a00000000000000000000000000000000000000000000000000000000081526004016110e99061255a565b60405180910390fd5b6110fd83838361187d565b611108600082610e75565b6001600360008573ffffffffffffffffffffffffffffffffffffffff1673ffffffffffffffffffffffffffffffffffffffff168152602001908152602001600020600082825461115891906128ec565b925050819055506001600360008473ffffffffffffffffffffffffffffffffffffffff1673ffffffffffffffffffffffffffffffffffffffff16815260200190815260200160002060008282546111af9190612865565b92505081905550816002600083815260200190815260200160002060006101000a81548173ffffffffffffffffffffffffffffffffffffffff021916908373ffffffffffffffffffffffffffffffffffffffff160217905550808273ffffffffffffffffffffffffffffffffffffffff168473ffffffffffffffffffffffffffffffffffffffff167fddf252ad1be2c89b69c2b068fc378daa952ba7f163c4a11628f55a4df523b3ef60405160405180910390a461126e838383611882565b505050565b61130b8282604051602401611289929190612448565b6040516020818303038152906040527fdaf0d4aa000000000000000000000000000000000000000000000000000000007bffffffffffffffffffffffffffffffffffffffffffffffffffffffff19166020820180517bffffffffffffffffffffffffffffffffffffffffffffffffffffffff8381831617835250505050611887565b5050565b6113a581604051602401611323919061242d565b6040516020818303038152906040527f2c2ecbc2000000000000000000000000000000000000000000000000000000007bffffffffffffffffffffffffffffffffffffffffffffffffffffffff19166020820180517bffffffffffffffffffffffffffffffffffffffffffffffffffffffff8381831617835250505050611887565b50565b8173ffffffffffffffffffffffffffffffffffffffff168373ffffffffffffffffffffffffffffffffffffffff161415611417576040517f08c379a000000000000000000000000000000000000000000000000000000000815260040161140e9061257a565b60405180910390fd5b80600560008573ffffffffffffffffffffffffffffffffffffffff1673ffffffffffffffffffffffffffffffffffffffff16815260200190815260200160002060008473ffffffffffffffffffffffffffffffffffffffff1673ffffffffffffffffffffffffffffffffffffffff16815260200190815260200160002060006101000a81548160ff0219169083151502179055508173ffffffffffffffffffffffffffffffffffffffff168373ffffffffffffffffffffffffffffffffffffffff167f17307eab39ab6107e8899845ad3d59bd9653f200f220920489ca2b5937696c318360405161150891906124bd565b60405180910390a3505050565b61152084848461100c565b61152c848484846118b0565b61156b576040517f08c379a0000000000000000000000000000000000000000000000000000000008152600401611562906124fa565b60405180910390fd5b50505050565b606060405180602001604052806000815250905090565b606061159382610e01565b6115d2576040517f08c379a00000000000000000000000000000000000000000000000000000000081526004016115c99061269a565b60405180910390fd5b60006115dc611571565b905060008151116115fc5760405180602001604052806000815250611627565b8061160684611a47565b604051602001611617929190612409565b6040516020818303038152906040525b915050919050565b600073ffffffffffffffffffffffffffffffffffffffff168273ffffffffffffffffffffffffffffffffffffffff16141561169f576040517f08c379a00000000000000000000000000000000000000000000000000000000081526004016116969061263a565b60405180910390fd5b6116a881610e01565b156116e8576040517f08c379a00000000000000000000000000000000000000000000000000000000081526004016116df9061253a565b60405180910390fd5b6116f46000838361187d565b6001600360008473ffffffffffffffffffffffffffffffffffffffff1673ffffffffffffffffffffffffffffffffffffffff16815260200190815260200160002060008282546117449190612865565b92505081905550816002600083815260200190815260200160002060006101000a81548173ffffffffffffffffffffffffffffffffffffffff021916908373ffffffffffffffffffffffffffffffffffffffff160217905550808273ffffffffffffffffffffffffffffffffffffffff16600073ffffffffffffffffffffffffffffffffffffffff167fddf252ad1be2c89b69c2b068fc378daa952ba7f163c4a11628f55a4df523b3ef60405160405180910390a461180560008383611882565b5050565b61181282610e01565b611851576040517f08c379a00000000000000000000000000000000000000000000000000000000081526004016118489061261a565b60405180910390fd5b80600660008481526020019081526020016000209080519060200190611878929190611c17565b505050565b505050565b505050565b60008151905060006a636f6e736f6c652e6c6f679050602083016000808483855afa5050505050565b60006118d18473ffffffffffffffffffffffffffffffffffffffff16611bf4565b15611a3a578373ffffffffffffffffffffffffffffffffffffffff1663150b7a026118fa610e6d565b8786866040518563ffffffff1660e01b815260040161191c9493929190612471565b602060405180830381600087803b15801561193657600080fd5b505af192505050801561196757506040513d601f19601f820116820180604052508101906119649190611fc3565b60015b6119ea573d8060008114611997576040519150601f19603f3d011682016040523d82523d6000602084013e61199c565b606091505b506000815114156119e2576040517f08c379a00000000000000000000000000000000000000000000000000000000081526004016119d9906124fa565b60405180910390fd5b805181602001fd5b63150b7a0260e01b7bffffffffffffffffffffffffffffffffffffffffffffffffffffffff1916817bffffffffffffffffffffffffffffffffffffffffffffffffffffffff191614915050611a3f565b600190505b949350505050565b60606000821415611a8f576040518060400160405280600181526020017f30000000000000000000000000000000000000000000000000000000000000008152509050611bef565b600082905060005b60008214611ac1578080611aaa90612a5d565b915050600a82611aba91906128bb565b9150611a97565b60008167ffffffffffffffff811115611b03577f4e487b7100000000000000000000000000000000000000000000000000000000600052604160045260246000fd5b6040519080825280601f01601f191660200182016040528015611b355781602001600182028036833780820191505090505b5090505b60008514611be857600182611b4e91906128ec565b9150600a85611b5d9190612aa6565b6030611b699190612865565b60f81b818381518110611ba5577f4e487b7100000000000000000000000000000000000000000000000000000000600052603260045260246000fd5b60200101907effffffffffffffffffffffffffffffffffffffffffffffffffffffffffffff1916908160001a905350600a85611be191906128bb565b9450611b39565b8093505050505b919050565b6000808273ffffffffffffffffffffffffffffffffffffffff163b119050919050565b828054611c23906129fa565b90600052602060002090601f016020900481019282611c455760008555611c8c565b82601f10611c5e57805160ff1916838001178555611c8c565b82800160010185558215611c8c579182015b82811115611c8b578251825591602001919060010190611c70565b5b509050611c999190611c9d565b5090565b5b80821115611cb6576000816000905550600101611c9e565b5090565b6000611ccd611cc8846127c0565b61279b565b905082815260208101848484011115611ce557600080fd5b611cf08482856129b8565b509392505050565b6000611d0b611d06846127f1565b61279b565b905082815260208101848484011115611d2357600080fd5b611d2e8482856129b8565b509392505050565b600081359050611d458161304e565b92915050565b600081359050611d5a81613065565b92915050565b600081359050611d6f8161307c565b92915050565b600081519050611d848161307c565b92915050565b600082601f830112611d9b57600080fd5b8135611dab848260208601611cba565b91505092915050565b600082601f830112611dc557600080fd5b8135611dd5848260208601611cf8565b91505092915050565b600081359050611ded81613093565b92915050565b600060208284031215611e0557600080fd5b6000611e1384828501611d36565b91505092915050565b60008060408385031215611e2f57600080fd5b6000611e3d85828601611d36565b9250506020611e4e85828601611d36565b9150509250929050565b600080600060608486031215611e6d57600080fd5b6000611e7b86828701611d36565b9350506020611e8c86828701611d36565b9250506040611e9d86828701611dde565b9150509250925092565b60008060008060808587031215611ebd57600080fd5b6000611ecb87828801611d36565b9450506020611edc87828801611d36565b9350506040611eed87828801611dde565b925050606085013567ffffffffffffffff811115611f0a57600080fd5b611f1687828801611d8a565b91505092959194509250565b60008060408385031215611f3557600080fd5b6000611f4385828601611d36565b9250506020611f5485828601611d4b565b9150509250929050565b60008060408385031215611f7157600080fd5b6000611f7f85828601611d36565b9250506020611f9085828601611dde565b9150509250929050565b600060208284031215611fac57600080fd5b6000611fba84828501611d60565b91505092915050565b600060208284031215611fd557600080fd5b6000611fe384828501611d75565b91505092915050565b600060208284031215611ffe57600080fd5b600082013567ffffffffffffffff81111561201857600080fd5b61202484828501611db4565b91505092915050565b60006020828403121561203f57600080fd5b600061204d84828501611dde565b91505092915050565b60008060006060848603121561206b57600080fd5b600061207986828701611dde565b935050602061208a86828701611dde565b925050604061209b86828701611d36565b9150509250925092565b6120ae81612920565b82525050565b6120bd81612932565b82525050565b60006120ce82612822565b6120d88185612838565b93506120e88185602086016129c7565b6120f181612b93565b840191505092915050565b61210581612994565b82525050565b612114816129a6565b82525050565b60006121258261282d565b61212f8185612849565b935061213f8185602086016129c7565b61214881612b93565b840191505092915050565b600061215e8261282d565b612168818561285a565b93506121788185602086016129c7565b80840191505092915050565b6000612191603283612849565b915061219c82612ba4565b604082019050919050565b60006121b4602583612849565b91506121bf82612bf3565b604082019050919050565b60006121d7601c83612849565b91506121e282612c42565b602082019050919050565b60006121fa602483612849565b915061220582612c6b565b604082019050919050565b600061221d601983612849565b915061222882612cba565b602082019050919050565b6000612240602c83612849565b915061224b82612ce3565b604082019050919050565b6000612263603883612849565b915061226e82612d32565b604082019050919050565b6000612286602a83612849565b915061229182612d81565b604082019050919050565b60006122a9602983612849565b91506122b482612dd0565b604082019050919050565b60006122cc602e83612849565b91506122d782612e1f565b604082019050919050565b60006122ef602083612849565b91506122fa82612e6e565b602082019050919050565b6000612312603183612849565b915061231d82612e97565b604082019050919050565b6000612335602c83612849565b915061234082612ee6565b604082019050919050565b6000612358602f83612849565b915061236382612f35565b604082019050919050565b600061237b602183612849565b915061238682612f84565b604082019050919050565b600061239e601083612849565b91506123a982612fd3565b602082019050919050565b60006123c1600083612849565b91506123cc82612ffc565b600082019050919050565b60006123e4603183612849565b91506123ef82612fff565b604082019050919050565b6124038161298a565b82525050565b60006124158285612153565b91506124218284612153565b91508190509392505050565b600060208201905061244260008301846120a5565b92915050565b600060408201905061245d60008301856120a5565b61246a60208301846120a5565b9392505050565b600060808201905061248660008301876120a5565b61249360208301866120a5565b6124a060408301856123fa565b81810360608301526124b281846120c3565b905095945050505050565b60006020820190506124d260008301846120b4565b92915050565b600060208201905081810360008301526124f2818461211a565b905092915050565b6000602082019050818103600083015261251381612184565b9050919050565b60006020820190508181036000830152612533816121a7565b9050919050565b60006020820190508181036000830152612553816121ca565b9050919050565b60006020820190508181036000830152612573816121ed565b9050919050565b6000602082019050818103600083015261259381612210565b9050919050565b600060208201905081810360008301526125b381612233565b9050919050565b600060208201905081810360008301526125d381612256565b9050919050565b600060208201905081810360008301526125f381612279565b9050919050565b600060208201905081810360008301526126138161229c565b9050919050565b60006020820190508181036000830152612633816122bf565b9050919050565b60006020820190508181036000830152612653816122e2565b9050919050565b6000602082019050818103600083015261267381612305565b9050919050565b6000602082019050818103600083015261269381612328565b9050919050565b600060208201905081810360008301526126b38161234b565b9050919050565b600060208201905081810360008301526126d38161236e565b9050919050565b600060208201905081810360008301526126f381612391565b9050919050565b60006020820190508181036000830152612713816123d7565b9050919050565b600060208201905061272f60008301846123fa565b92915050565b600060c08201905061274a60008301886123fa565b61275760208301876123fa565b612764604083018661210b565b61277160608301856120fc565b8181036080830152612782816123b4565b905061279160a08301846120fc565b9695505050505050565b60006127a56127b6565b90506127b18282612a2c565b919050565b6000604051905090565b600067ffffffffffffffff8211156127db576127da612b64565b5b6127e482612b93565b9050602081019050919050565b600067ffffffffffffffff82111561280c5761280b612b64565b5b61281582612b93565b9050602081019050919050565b600081519050919050565b600081519050919050565b600082825260208201905092915050565b600082825260208201905092915050565b600081905092915050565b60006128708261298a565b915061287b8361298a565b9250827fffffffffffffffffffffffffffffffffffffffffffffffffffffffffffffffff038211156128b0576128af612ad7565b5b828201905092915050565b60006128c68261298a565b91506128d18361298a565b9250826128e1576128e0612b06565b5b828204905092915050565b60006128f78261298a565b91506129028361298a565b92508282101561291557612914612ad7565b5b828203905092915050565b600061292b8261296a565b9050919050565b60008115159050919050565b60007fffffffff0000000000000000000000000000000000000000000000000000000082169050919050565b600073ffffffffffffffffffffffffffffffffffffffff82169050919050565b6000819050919050565b600061299f8261298a565b9050919050565b60006129b18261298a565b9050919050565b82818337600083830152505050565b60005b838110156129e55780820151818401526020810190506129ca565b838111156129f4576000848401525b50505050565b60006002820490506001821680612a1257607f821691505b60208210811415612a2657612a25612b35565b5b50919050565b612a3582612b93565b810181811067ffffffffffffffff82111715612a5457612a53612b64565b5b80604052505050565b6000612a688261298a565b91507fffffffffffffffffffffffffffffffffffffffffffffffffffffffffffffffff821415612a9b57612a9a612ad7565b5b600182019050919050565b6000612ab18261298a565b9150612abc8361298a565b925082612acc57612acb612b06565b5b828206905092915050565b7f4e487b7100000000000000000000000000000000000000000000000000000000600052601160045260246000fd5b7f4e487b7100000000000000000000000000000000000000000000000000000000600052601260045260246000fd5b7f4e487b7100000000000000000000000000000000000000000000000000000000600052602260045260246000fd5b7f4e487b7100000000000000000000000000000000000000000000000000000000600052604160045260246000fd5b6000601f19601f8301169050919050565b7f4552433732313a207472616e7366657220746f206e6f6e20455243373231526560008201527f63656976657220696d706c656d656e7465720000000000000000000000000000602082015250565b7f4552433732313a207472616e736665722066726f6d20696e636f72726563742060008201527f6f776e6572000000000000000000000000000000000000000000000000000000602082015250565b7f4552433732313a20746f6b656e20616c7265616479206d696e74656400000000600082015250565b7f4552433732313a207472616e7366657220746f20746865207a65726f2061646460008201527f7265737300000000000000000000000000000000000000000000000000000000602082015250565b7f4552433732313a20617070726f766520746f2063616c6c657200000000000000600082015250565b7f4552433732313a206f70657261746f7220717565727920666f72206e6f6e657860008201527f697374656e7420746f6b656e0000000000000000000000000000000000000000602082015250565b7f4552433732313a20617070726f76652063616c6c6572206973206e6f74206f7760008201527f6e6572206e6f7220617070726f76656420666f7220616c6c0000000000000000602082015250565b7f4552433732313a2062616c616e636520717565727920666f7220746865207a6560008201527f726f206164647265737300000000000000000000000000000000000000000000602082015250565b7f4552433732313a206f776e657220717565727920666f72206e6f6e657869737460008201527f656e7420746f6b656e0000000000000000000000000000000000000000000000602082015250565b7f45524337323155524953746f726167653a2055524920736574206f66206e6f6e60008201527f6578697374656e7420746f6b656e000000000000000000000000000000000000602082015250565b7f4552433732313a206d696e7420746f20746865207a65726f2061646472657373600082015250565b7f45524337323155524953746f726167653a2055524920717565727920666f722060008201527f6e6f6e6578697374656e7420746f6b656e000000000000000000000000000000602082015250565b7f4552433732313a20617070726f76656420717565727920666f72206e6f6e657860008201527f697374656e7420746f6b656e0000000000000000000000000000000000000000602082015250565b7f4552433732314d657461646174613a2055524920717565727920666f72206e6f60008201527f6e6578697374656e7420746f6b656e0000000000000000000000000000000000602082015250565b7f4552433732313a20617070726f76616c20746f2063757272656e74206f776e6560008201527f7200000000000000000000000000000000000000000000000000000000000000602082015250565b7f4e6f74206f776e6572206f66204e465400000000000000000000000000000000600082015250565b50565b7f4552433732313a207472616e736665722063616c6c6572206973206e6f74206f60008201527f776e6572206e6f7220617070726f766564000000000000000000000000000000602082015250565b61305781612920565b811461306257600080fd5b50565b61306e81612932565b811461307957600080fd5b50565b6130858161293e565b811461309057600080fd5b50565b61309c8161298a565b81146130a757600080fd5b5056fea264697066735822122066c131195d749f1bfed4cdc8cb00f569879863f6a8034ca917c60b67604b10d864736f6c63430008040033",
  "linkReferences": {},
  "deployedLinkReferences": {}
}