{
  "_format": "hh-sol-artifact-1",
  "contractName": "Marketplace",
  "sourceName": "src/backend/contracts/Marketplace.sol",
  "abi": [
    {
      "inputs": [
        {
          "internalType": "uint256",
          "name": "_feePercent",
          "type": "uint256"
        }
      ],
      "stateMutability": "nonpayable",
      "type": "constructor"
    },
    {
      "anonymous": false,
      "inputs": [
        {
          "indexed": false,
          "internalType": "uint256",
          "name": "itemId",
          "type": "uint256"
        },
        {
          "indexed": true,
          "internalType": "address",
          "name": "nft",
          "type": "address"
        },
        {
          "indexed": false,
          "internalType": "uint256",
          "name": "tokenId",
          "type": "uint256"
        },
        {
          "indexed": false,
          "internalType": "uint256",
          "name": "price",
          "type": "uint256"
        },
        {
          "indexed": false,
          "internalType": "uint256",
          "name": "date",
          "type": "uint256"
        },
        {
          "indexed": false,
          "internalType": "string",
          "name": "sno",
          "type": "string"
        },
        {
          "indexed": false,
          "internalType": "uint256",
          "name": "warranty",
          "type": "uint256"
        },
        {
          "indexed": true,
          "internalType": "address",
          "name": "seller",
          "type": "address"
        },
        {
          "indexed": true,
          "internalType": "address",
          "name": "buyer",
          "type": "address"
        }
      ],
      "name": "Bought",
      "type": "event"
    },
    {
      "anonymous": false,
      "inputs": [
        {
          "indexed": false,
          "internalType": "uint256",
          "name": "itemId",
          "type": "uint256"
        },
        {
          "indexed": true,
          "internalType": "address",
          "name": "nft",
          "type": "address"
        },
        {
          "indexed": false,
          "internalType": "uint256",
          "name": "tokenId",
          "type": "uint256"
        },
        {
          "indexed": false,
          "internalType": "uint256",
          "name": "price",
          "type": "uint256"
        },
        {
          "indexed": false,
          "internalType": "uint256",
          "name": "date",
          "type": "uint256"
        },
        {
          "indexed": false,
          "internalType": "string",
          "name": "sno",
          "type": "string"
        },
        {
          "indexed": false,
          "internalType": "uint256",
          "name": "warranty",
          "type": "uint256"
        },
        {
          "indexed": true,
          "internalType": "address",
          "name": "seller",
          "type": "address"
        }
      ],
      "name": "Offered",
      "type": "event"
    },
    {
      "anonymous": false,
      "inputs": [
        {
          "indexed": false,
          "internalType": "uint256",
          "name": "itemId",
          "type": "uint256"
        },
        {
          "indexed": true,
          "internalType": "address",
          "name": "nft",
          "type": "address"
        },
        {
          "indexed": false,
          "internalType": "uint256",
          "name": "tokenId",
          "type": "uint256"
        },
        {
          "indexed": false,
          "internalType": "uint256",
          "name": "price",
          "type": "uint256"
        },
        {
          "indexed": false,
          "internalType": "uint256",
          "name": "date",
          "type": "uint256"
        },
        {
          "indexed": false,
          "internalType": "string",
          "name": "sno",
          "type": "string"
        },
        {
          "indexed": false,
          "internalType": "uint256",
          "name": "warranty",
          "type": "uint256"
        },
        {
          "indexed": true,
          "internalType": "address",
          "name": "seller",
          "type": "address"
        },
        {
          "indexed": true,
          "internalType": "address",
          "name": "buyer",
          "type": "address"
        }
      ],
      "name": "Transfer",
      "type": "event"
    },
    {
      "anonymous": false,
      "inputs": [
        {
          "indexed": false,
          "internalType": "uint256",
          "name": "itemId",
          "type": "uint256"
        },
        {
          "indexed": true,
          "internalType": "address",
          "name": "nft",
          "type": "address"
        },
        {
          "indexed": false,
          "internalType": "uint256",
          "name": "tokenId",
          "type": "uint256"
        },
        {
          "indexed": false,
          "internalType": "uint256",
          "name": "price",
          "type": "uint256"
        },
        {
          "indexed": false,
          "internalType": "uint256",
          "name": "date",
          "type": "uint256"
        },
        {
          "indexed": false,
          "internalType": "string",
          "name": "sno",
          "type": "string"
        },
        {
          "indexed": false,
          "internalType": "uint256",
          "name": "warranty",
          "type": "uint256"
        },
        {
          "indexed": true,
          "internalType": "address",
          "name": "seller",
          "type": "address"
        },
        {
          "indexed": true,
          "internalType": "address",
          "name": "buyer",
          "type": "address"
        }
      ],
      "name": "Verify",
      "type": "event"
    },
    {
      "inputs": [],
      "name": "feeAccount",
      "outputs": [
        {
          "internalType": "address payable",
          "name": "",
          "type": "address"
        }
      ],
      "stateMutability": "view",
      "type": "function"
    },
    {
      "inputs": [],
      "name": "feePercent",
      "outputs": [
        {
          "internalType": "uint256",
          "name": "",
          "type": "uint256"
        }
      ],
      "stateMutability": "view",
      "type": "function"
    },
    {
      "inputs": [
        {
          "internalType": "uint256",
          "name": "_itemId",
          "type": "uint256"
        }
      ],
      "name": "getTotalPrice",
      "outputs": [
        {
          "internalType": "uint256",
          "name": "",
          "type": "uint256"
        }
      ],
      "stateMutability": "view",
      "type": "function"
    },
    {
      "inputs": [
        {
          "internalType": "uint256",
          "name": "_date1",
          "type": "uint256"
        },
        {
          "internalType": "uint256",
          "name": "_date2",
          "type": "uint256"
        }
      ],
      "name": "isBefore",
      "outputs": [
        {
          "internalType": "bool",
          "name": "",
          "type": "bool"
        }
      ],
      "stateMutability": "pure",
      "type": "function"
    },
    {
      "inputs": [],
      "name": "isValid",
      "outputs": [
        {
          "internalType": "bool",
          "name": "",
          "type": "bool"
        }
      ],
      "stateMutability": "view",
      "type": "function"
    },
    {
      "inputs": [],
      "name": "itemCount",
      "outputs": [
        {
          "internalType": "uint256",
          "name": "",
          "type": "uint256"
        }
      ],
      "stateMutability": "view",
      "type": "function"
    },
    {
      "inputs": [
        {
          "internalType": "uint256",
          "name": "",
          "type": "uint256"
        }
      ],
      "name": "items",
      "outputs": [
        {
          "internalType": "uint256",
          "name": "itemId",
          "type": "uint256"
        },
        {
          "internalType": "contract IERC721",
          "name": "nft",
          "type": "address"
        },
        {
          "internalType": "uint256",
          "name": "tokenId",
          "type": "uint256"
        },
        {
          "internalType": "uint256",
          "name": "price",
          "type": "uint256"
        },
        {
          "internalType": "uint256",
          "name": "date",
          "type": "uint256"
        },
        {
          "internalType": "string",
          "name": "sno",
          "type": "string"
        },
        {
          "internalType": "uint256",
          "name": "warranty",
          "type": "uint256"
        },
        {
          "internalType": "address payable",
          "name": "seller",
          "type": "address"
        },
        {
          "internalType": "bool",
          "name": "sold",
          "type": "bool"
        }
      ],
      "stateMutability": "view",
      "type": "function"
    },
    {
      "inputs": [
        {
          "internalType": "contract IERC721",
          "name": "_nft",
          "type": "address"
        },
        {
          "internalType": "uint256",
          "name": "_tokenId",
          "type": "uint256"
        },
        {
          "internalType": "uint256",
          "name": "_price",
          "type": "uint256"
        },
        {
          "internalType": "string",
          "name": "_sno",
          "type": "string"
        },
        {
          "internalType": "uint256",
          "name": "_warranty",
          "type": "uint256"
        }
      ],
      "name": "makeItem",
      "outputs": [],
      "stateMutability": "nonpayable",
      "type": "function"
    },
    {
      "inputs": [
        {
          "internalType": "uint256",
          "name": "_itemId",
          "type": "uint256"
        },
        {
          "internalType": "address",
          "name": "_buyer",
          "type": "address"
        }
      ],
      "name": "purchaseItem",
      "outputs": [],
      "stateMutability": "payable",
      "type": "function"
    },
    {
      "inputs": [
        {
          "internalType": "uint256",
          "name": "_itemId",
          "type": "uint256"
        },
        {
          "internalType": "uint256",
          "name": "_currentDate",
          "type": "uint256"
        },
        {
          "internalType": "uint256",
          "name": "_genesis",
          "type": "uint256"
        }
      ],
      "name": "verifyItem",
      "outputs": [],
      "stateMutability": "nonpayable",
      "type": "function"
    }
  ],
  "bytecode": "0x60c06040526001600260006101000a81548160ff0219169083151502179055503480156200002c57600080fd5b5060405162001cd538038062001cd58339818101604052810190620000529190620000b7565b60016000819055503373ffffffffffffffffffffffffffffffffffffffff1660808173ffffffffffffffffffffffffffffffffffffffff1660601b815250508060a081815250505062000107565b600081519050620000b181620000ed565b92915050565b600060208284031215620000ca57600080fd5b6000620000da84828501620000a0565b91505092915050565b6000819050919050565b620000f881620000e3565b81146200010457600080fd5b50565b60805160601c60a051611b976200013e60003960008181610a260152610c9601526000818161055a015261074b0152611b976000f3fe6080604052600436106100915760003560e01c8063a5e2c64211610059578063a5e2c6421461015c578063abb9cf1314610199578063bb5d40eb146101c2578063bfb231d2146101ed578063ca7dd3751461023257610091565b80635ea480331461009657806365e17c9d146100bf5780636bfb0d01146100ea5780637bfe9efd146101155780637fd6f15c14610131575b600080fd5b3480156100a257600080fd5b506100bd60048036038101906100b89190611075565b61026f565b005b3480156100cb57600080fd5b506100d4610558565b6040516100e1919061139f565b60405180910390f35b3480156100f657600080fd5b506100ff61057c565b60405161010c91906114bc565b60405180910390f35b61012f600480360381019061012a919061112d565b610582565b005b34801561013d57600080fd5b50610146610a24565b60405161015391906114bc565b60405180910390f35b34801561016857600080fd5b50610183600480360381019061017e9190611169565b610a48565b60405161019091906113f1565b60405180910390f35b3480156101a557600080fd5b506101c060048036038101906101bb91906111a5565b610a66565b005b3480156101ce57600080fd5b506101d7610b5a565b6040516101e491906113f1565b60405180910390f35b3480156101f957600080fd5b50610214600480360381019061020f9190611104565b610b6d565b604051610229999897969594939291906114d7565b60405180910390f35b34801561023e57600080fd5b5061025960048036038101906102549190611104565b610c90565b60405161026691906114bc565b60405180910390f35b600260005414156102b5576040517f08c379a00000000000000000000000000000000000000000000000000000000081526004016102ac9061149c565b60405180910390fd5b6002600081905550600160008154809291906102d09061193c565b919050555060008573ffffffffffffffffffffffffffffffffffffffff166323b872dd3330886040518463ffffffff1660e01b8152600401610314939291906113ba565b600060405180830381600087803b15801561032e57600080fd5b505af1158015610342573d6000803e3d6000fd5b505050506103508284610cf3565b60405180610120016040528060015481526020018773ffffffffffffffffffffffffffffffffffffffff1681526020018681526020018581526020018281526020018481526020018381526020013373ffffffffffffffffffffffffffffffffffffffff168152602001600015158152506003600060015481526020019081526020016000206000820151816000015560208201518160010160006101000a81548173ffffffffffffffffffffffffffffffffffffffff021916908373ffffffffffffffffffffffffffffffffffffffff16021790555060408201518160020155606082015181600301556080820151816004015560a0820151816005019080519060200190610461929190610eed565b5060c0820151816006015560e08201518160070160006101000a81548173ffffffffffffffffffffffffffffffffffffffff021916908373ffffffffffffffffffffffffffffffffffffffff1602179055506101008201518160070160146101000a81548160ff0219169083151502179055509050503373ffffffffffffffffffffffffffffffffffffffff168673ffffffffffffffffffffffffffffffffffffffff167ff8d002cb89c740604bf325f573852bed87524895de350b7961c2ac74dcbbb3d060015488888689896040516105409695949392919061159b565b60405180910390a35060016000819055505050505050565b7f000000000000000000000000000000000000000000000000000000000000000081565b60015481565b600260005414156105c8576040517f08c379a00000000000000000000000000000000000000000000000000000000081526004016105bf9061149c565b60405180910390fd5b600260008190555060006105db83610c90565b9050600060036000858152602001908152602001600020905060008411801561060657506001548411155b610645576040517f08c379a000000000000000000000000000000000000000000000000000000000815260040161063c9061147c565b60405180910390fd5b81341015610688576040517f08c379a000000000000000000000000000000000000000000000000000000000815260040161067f9061145c565b60405180910390fd5b8060070160149054906101000a900460ff16156106da576040517f08c379a00000000000000000000000000000000000000000000000000000000081526004016106d19061143c565b60405180910390fd5b8060070160009054906101000a900473ffffffffffffffffffffffffffffffffffffffff1673ffffffffffffffffffffffffffffffffffffffff166108fc82600301549081150290604051600060405180830381858888f19350505050158015610748573d6000803e3d6000fd5b507f000000000000000000000000000000000000000000000000000000000000000073ffffffffffffffffffffffffffffffffffffffff166108fc82600301548461079391906117d3565b9081150290604051600060405180830381858888f193505050501580156107be573d6000803e3d6000fd5b5060018160070160146101000a81548160ff0219169083151502179055506107e533610d8f565b8060010160009054906101000a900473ffffffffffffffffffffffffffffffffffffffff1673ffffffffffffffffffffffffffffffffffffffff166323b872dd308584600201546040518463ffffffff1660e01b815260040161084a939291906113ba565b600060405180830381600087803b15801561086457600080fd5b505af1158015610878573d6000803e3d6000fd5b505050506109358160010160009054906101000a900473ffffffffffffffffffffffffffffffffffffffff1673ffffffffffffffffffffffffffffffffffffffff16636352211e83600201546040518263ffffffff1660e01b81526004016108e091906114bc565b60206040518083038186803b1580156108f857600080fd5b505afa15801561090c573d6000803e3d6000fd5b505050506040513d601f19601f82011682018060405250810190610930919061104c565b610d8f565b8273ffffffffffffffffffffffffffffffffffffffff168160070160009054906101000a900473ffffffffffffffffffffffffffffffffffffffff1673ffffffffffffffffffffffffffffffffffffffff168260010160009054906101000a900473ffffffffffffffffffffffffffffffffffffffff1673ffffffffffffffffffffffffffffffffffffffff167f5a0d048d12a0c84e031861a1ae18c27c2ab3909b97ede449be5833d8d4c895fa87856002015486600301548760040154886005018960060154604051610a0e96959493929190611603565b60405180910390a4505060016000819055505050565b7f000000000000000000000000000000000000000000000000000000000000000081565b600081831015610a5b5760019050610a60565b600090505b92915050565b60026000541415610aac576040517f08c379a0000000000000000000000000000000000000000000000000000000008152600401610aa39061149c565b60405180910390fd5b6002600081905550610b096040518060400160405280600581526020017f4865796f6f0000000000000000000000000000000000000000000000000000008152506003600086815260200190815260200160002060060154610e28565b610b3482600360008681526020019081526020016000206006015483610b2f91906116f2565b610a48565b600260006101000a81548160ff0219169083151502179055506001600081905550505050565b600260009054906101000a900460ff1681565b60036020528060005260406000206000915090508060000154908060010160009054906101000a900473ffffffffffffffffffffffffffffffffffffffff1690806002015490806003015490806004015490806005018054610bce906118d9565b80601f0160208091040260200160405190810160405280929190818152602001828054610bfa906118d9565b8015610c475780601f10610c1c57610100808354040283529160200191610c47565b820191906000526020600020905b815481529060010190602001808311610c2a57829003601f168201915b5050505050908060060154908060070160009054906101000a900473ffffffffffffffffffffffffffffffffffffffff16908060070160149054906101000a900460ff16905089565b600060647f00000000000000000000000000000000000000000000000000000000000000006064610cc191906116f2565b6003600085815260200190815260200160002060030154610ce29190611779565b610cec9190611748565b9050919050565b610d8b8282604051602401610d0992919061156b565b6040516020818303038152906040527f0fa3f345000000000000000000000000000000000000000000000000000000007bffffffffffffffffffffffffffffffffffffffffffffffffffffffff19166020820180517bffffffffffffffffffffffffffffffffffffffffffffffffffffffff8381831617835250505050610ec4565b5050565b610e2581604051602401610da39190611384565b6040516020818303038152906040527f2c2ecbc2000000000000000000000000000000000000000000000000000000007bffffffffffffffffffffffffffffffffffffffffffffffffffffffff19166020820180517bffffffffffffffffffffffffffffffffffffffffffffffffffffffff8381831617835250505050610ec4565b50565b610ec08282604051602401610e3e92919061140c565b6040516020818303038152906040527f9710a9d0000000000000000000000000000000000000000000000000000000007bffffffffffffffffffffffffffffffffffffffffffffffffffffffff19166020820180517bffffffffffffffffffffffffffffffffffffffffffffffffffffffff8381831617835250505050610ec4565b5050565b60008151905060006a636f6e736f6c652e6c6f679050602083016000808483855afa5050505050565b828054610ef9906118d9565b90600052602060002090601f016020900481019282610f1b5760008555610f62565b82601f10610f3457805160ff1916838001178555610f62565b82800160010185558215610f62579182015b82811115610f61578251825591602001919060010190610f46565b5b509050610f6f9190610f73565b5090565b5b80821115610f8c576000816000905550600101610f74565b5090565b6000610fa3610f9e84611690565b61166b565b905082815260208101848484011115610fbb57600080fd5b610fc6848285611897565b509392505050565b600081359050610fdd81611b1c565b92915050565b600081519050610ff281611b1c565b92915050565b60008135905061100781611b33565b92915050565b600082601f83011261101e57600080fd5b813561102e848260208601610f90565b91505092915050565b60008135905061104681611b4a565b92915050565b60006020828403121561105e57600080fd5b600061106c84828501610fe3565b91505092915050565b600080600080600060a0868803121561108d57600080fd5b600061109b88828901610ff8565b95505060206110ac88828901611037565b94505060406110bd88828901611037565b935050606086013567ffffffffffffffff8111156110da57600080fd5b6110e68882890161100d565b92505060806110f788828901611037565b9150509295509295909350565b60006020828403121561111657600080fd5b600061112484828501611037565b91505092915050565b6000806040838503121561114057600080fd5b600061114e85828601611037565b925050602061115f85828601610fce565b9150509250929050565b6000806040838503121561117c57600080fd5b600061118a85828601611037565b925050602061119b85828601611037565b9150509250929050565b6000806000606084860312156111ba57600080fd5b60006111c886828701611037565b93505060206111d986828701611037565b92505060406111ea86828701611037565b9150509250925092565b6111fd81611819565b82525050565b61120c81611807565b82525050565b61121b8161182b565b82525050565b61122a81611873565b82525050565b600061123b826116d6565b61124581856116e1565b93506112558185602086016118a6565b61125e81611a41565b840191505092915050565b60008154611276816118d9565b61128081866116e1565b9450600182166000811461129b57600181146112ad576112e0565b60ff19831686526020860193506112e0565b6112b6856116c1565b60005b838110156112d8578154818901526001820191506020810190506112b9565b808801955050505b50505092915050565b60006112f66011836116e1565b915061130182611a52565b602082019050919050565b60006113196033836116e1565b915061132482611a7b565b604082019050919050565b600061133c6012836116e1565b915061134782611aca565b602082019050919050565b600061135f601f836116e1565b915061136a82611af3565b602082019050919050565b61137e81611869565b82525050565b60006020820190506113996000830184611203565b92915050565b60006020820190506113b460008301846111f4565b92915050565b60006060820190506113cf6000830186611203565b6113dc6020830185611203565b6113e96040830184611375565b949350505050565b60006020820190506114066000830184611212565b92915050565b600060408201905081810360008301526114268185611230565b90506114356020830184611375565b9392505050565b60006020820190508181036000830152611455816112e9565b9050919050565b600060208201905081810360008301526114758161130c565b9050919050565b600060208201905081810360008301526114958161132f565b9050919050565b600060208201905081810360008301526114b581611352565b9050919050565b60006020820190506114d16000830184611375565b92915050565b6000610120820190506114ed600083018c611375565b6114fa602083018b611221565b611507604083018a611375565b6115146060830189611375565b6115216080830188611375565b81810360a08301526115338187611230565b905061154260c0830186611375565b61154f60e08301856111f4565b61155d610100830184611212565b9a9950505050505050505050565b60006040820190506115806000830185611375565b81810360208301526115928184611230565b90509392505050565b600060c0820190506115b06000830189611375565b6115bd6020830188611375565b6115ca6040830187611375565b6115d76060830186611375565b81810360808301526115e98185611230565b90506115f860a0830184611375565b979650505050505050565b600060c0820190506116186000830189611375565b6116256020830188611375565b6116326040830187611375565b61163f6060830186611375565b81810360808301526116518185611269565b905061166060a0830184611375565b979650505050505050565b6000611675611686565b9050611681828261190b565b919050565b6000604051905090565b600067ffffffffffffffff8211156116ab576116aa611a12565b5b6116b482611a41565b9050602081019050919050565b60008190508160005260206000209050919050565b600081519050919050565b600082825260208201905092915050565b60006116fd82611869565b915061170883611869565b9250827fffffffffffffffffffffffffffffffffffffffffffffffffffffffffffffffff0382111561173d5761173c611985565b5b828201905092915050565b600061175382611869565b915061175e83611869565b92508261176e5761176d6119b4565b5b828204905092915050565b600061178482611869565b915061178f83611869565b9250817fffffffffffffffffffffffffffffffffffffffffffffffffffffffffffffffff04831182151516156117c8576117c7611985565b5b828202905092915050565b60006117de82611869565b91506117e983611869565b9250828210156117fc576117fb611985565b5b828203905092915050565b600061181282611849565b9050919050565b600061182482611849565b9050919050565b60008115159050919050565b600061184282611807565b9050919050565b600073ffffffffffffffffffffffffffffffffffffffff82169050919050565b6000819050919050565b600061187e82611885565b9050919050565b600061189082611849565b9050919050565b82818337600083830152505050565b60005b838110156118c45780820151818401526020810190506118a9565b838111156118d3576000848401525b50505050565b600060028204905060018216806118f157607f821691505b60208210811415611905576119046119e3565b5b50919050565b61191482611a41565b810181811067ffffffffffffffff8211171561193357611932611a12565b5b80604052505050565b600061194782611869565b91507fffffffffffffffffffffffffffffffffffffffffffffffffffffffffffffffff82141561197a57611979611985565b5b600182019050919050565b7f4e487b7100000000000000000000000000000000000000000000000000000000600052601160045260246000fd5b7f4e487b7100000000000000000000000000000000000000000000000000000000600052601260045260246000fd5b7f4e487b7100000000000000000000000000000000000000000000000000000000600052602260045260246000fd5b7f4e487b7100000000000000000000000000000000000000000000000000000000600052604160045260246000fd5b6000601f19601f8301169050919050565b7f6974656d20616c726561647920736f6c64000000000000000000000000000000600082015250565b7f6e6f7420656e6f75676820657468657220746f20636f766572206974656d207060008201527f7269636520616e64206d61726b65742066656500000000000000000000000000602082015250565b7f6974656d20646f65736e27742065786973740000000000000000000000000000600082015250565b7f5265656e7472616e637947756172643a207265656e7472616e742063616c6c00600082015250565b611b2581611807565b8114611b3057600080fd5b50565b611b3c81611837565b8114611b4757600080fd5b50565b611b5381611869565b8114611b5e57600080fd5b5056fea26469706673582212205dd6439dcb179d36d0dc43fef9a5062dcad1ed96ae7bc3cb09c6bcec6276642d64736f6c63430008040033",
  "linkReferences": {},
  "deployedLinkReferences": {}
}